:04000000CDEF05F04B
:100800000053697374656D6120626C6F7175656109
:10081000646F210044696769746520612073656EA7
:1008200068613A200053656E686120696E636F727B
:1008300072657461210053656E6861206D6F646933
:100840006669636164610053656E686120636F72FD
:100850007265746121004E6F76612073656E686108
:100860003A20000020EE60F010EE11F00B0EDBCF0E
:10087000E3FFE806FCE20BC004F0750E056E95EC94
:1008800005F0010E8FD0040E8C6401D01200000E12
:100890001D6E1D50110FD96EDA6A8350DE18D8A470
:1008A0007BD01D50110FD96EDA6A810EDE18D8A4E4
:1008B00029D00D50D96EDA6ADF50D8B423D00D504C
:1008C000D96EDA6ADF060D50D96EDA6ADF500F6E24
:1008D0000C500F24D96EDA6A000EDF6E0D50D96EFF
:1008E000DA6ADF50036E640E046E0D50D96EDA6A58
:1008F000DF500F6E0C500F24D96EDA6ADF5048ECCF
:1009000006F031D01D50110FD96EDA6A840EDE1850
:10091000D8A406D00E50D96EDA6A010EDF6E23D04D
:100920000D50D96EDA6ADF500F6E0C500F24D96E5D
:10093000DA6A1D50300FDF6E0D50D96EDA6ADF5063
:10094000036E640E046E0D50D96EDA6ADF500F6EBE
:100950000C500F24D96EDA6ADF5048EC06F00D50C7
:10096000D96EDA6ADF2A83AE02D0010E01D0000E02
:100970000F6E83AC02D0010E01D0000E106E000E7F
:1009800083B8010E83BA010EE8A002D0010E01D097
:10099000000E10100F10E7E11D2A0B0E1D6479D711
:1009A0008C508C248C6E6FD7056EF00E8116F00E75
:1009B0009316939C939A93988A9C8A9A8A9883EC2C
:1009C00007F0300EF0EC06F00D0E046EAF0E036E65
:1009D000B60EE82EFED7032EFCD7042EFAD700D091
:1009E000300EF0EC06F0030E046E8A0E036E560E07
:1009F000E82EFED7032EFCD7042EFAD7320EF0ECE9
:100A000006F02CEC07F00009D8A4FBD72CEC07F07B
:100A10000009D8A4FBD70550F0EC06F02CEC07F049
:100A20000009D8A4FBD7080EF0EC06F02CEC07F078
:100A30000009D8A4FBD70F0EF0EC06F02CEC07F061
:100A40000009D8A4FBD7010EF0EC06F02CEC07F05F
:100A50000009D8A4FBD7040EF0EC06F02CEC07F04C
:100A60000009D8A4FBD7800E6DEC06F0120020EE32
:100A70004CF010EE21F0090EDBCFE3FFE806FCE2BC
:100A800020EE42F010EE2BF0090EDBCFE3FFE8067C
:100A9000FCE220EE35F0090EDE6AE806FDE2000E0B
:100AA000416E000E406EB2EC06F04050D8A40BD060
:100AB000140E0B6E350E0C6E410E0D6E400E0E6E4A
:100AC00032EC04F0F2D7350E016E210E026E0FECFF
:100AD00007F0D8A008D02B0E1E6E410E1F6E400EE0
:100AE000206E22EC06F0350E016E2B0E026E0FEC1E
:100AF00007F0D8A003D0A7EC07F002D0FBEC05F07C
:100B0000000E406E000E416E350E016E90EC07F047
:100B1000E80E016E030E026E000E036E000E046EF0
:100B200090EC06F049EC07F0C0D7750E0518D8B464
:100B300004D0000E086E400E03D0000E086E000EAA
:100B4000076E07C009F0000E0A6E1DD02CEC07F0EE
:100B50000009D8A4FBD709506DEC06F02CEC07F087
:100B60000009D8A4FBD704500A24066E06C0F6FF7D
:100B70000800F550D1EC06F02CEC07F00009D8A4E1
:100B8000FBD7092A0A2A04C001F073EC07F0066EAD
:100B90000A50065CD8A01200D9D7600EF66E0F0E70
:100BA000F76E000EF86E00EE60F010EE0CF009002B
:100BB000F5CFEEFFE550E150FAE13A0EF66E0F0E7A
:100BC000F76E000EF86E00EE42F010EE14F0090021
:100BD000F5CFEEFFE550E150FAE100EE6CF00A0EC1
:100BE000EE6AE806FDE1566A000EF86E080EF76E32
:100BF000000137EF05F0562A49EC07F0250E046E88
:100C0000750E056E95EC05F0030E5618D8A412006B
:100C1000010E046E750E056E95EC05F0010E046E66
:100C2000640E056E95EC05F0010E0B6EF40E61EC92
:100C300007F00B2A1E0E0B64F9D7000E566E49EC16
:100C400007F012001F50D96EDA6A000EDF6E2050D6
:100C5000D96EDA6A000EDF6E49EC07F00AD0560E44
:100C60000B6E1EC00CF01FC00DF020C00EF032EC59
:100C700004F02050D96EDA6ADF50D8B4F0D749ECCE
:100C800007F0360E046E750E056E95EC05F0120039
:100C9000056E2CEC07F00009D8A4FBD7750E0418DC
:100CA000D8B407D0400E0324066E076A000E072250
:100CB00003D003C006F0076A06506DEC06F02CEC7A
:100CC00007F00009D8A4FBD70550D1EC06F02CECB6
:100CD00007F00009D8B41200FAD7026EF00E93168E
:100CE000F00E811602C001F0800E011201380F0BC8
:100CF0000F0B81128A9C8A9AB6EC07F08A88B6ECB0
:100D000007F08A98F00E811602500F0B8112B6EC94
:100D100007F08A88B6EC07F08A980F0E931212003B
:100D2000000E066E000E076E000E086E000E096EB5
:100D30000ED0070E056E7D0EE82EFED7052EFCD7D1
:100D400000F0010E0626000E07220822092201509B
:100D5000065C025007580350085804500958D8B090
:100D60001200E7D7F00E956E000E936E000E8C6E9B
:100D7000280ED4EC04F02CEC07F00009D8A4FBD723
:100D8000060EF0EC06F02CEC07F00009D8A4FBD717
:100D90000C0EF0EC06F02CEC07F00009D8B41200B1
:100DA000FAD7016EF00E9316F00E811601380F0B74
:100DB0000F0B81128A8A8A9CB6EC07F08A88B6ECFF
:100DC00007F08A98F00E811601500F0B8112B6ECD5
:100DD00007F08A88B6EC07F08A980F0E931212007B
:100DE000016EF00E9316F00E811601380F0B0F0BEB
:100DF00081128A9C8A9AB6EC07F08A88B6EC07F0D2
:100E00008A98F00E811601500F0B8112B6EC07F094
:100E10008A88B6EC07F08A980F0E93121200000E23
:100E2000056E02500524D96EDA6A01500524E16E80
:100E3000E26ADE50E618D8B409D001500524D96E14
:100E4000DA6ADF50D8B402D0D8901200052A090E11
:100E50000564E7D7D88012008A8C8A9AB6EC07F02E
:100E60008A88B6EC07F081A60AD08A98B6EC07F01B
:100E70008A88B6EC07F08A988A9C010E12008A983C
:100E8000B6EC07F08A88B6EC07F08A988A9C000EC8
:100E900012002CEC07F00009D8A4FBD7010EF0ECEF
:100EA00006F02CEC07F00009D8A4FBD7500E016E19
:100EB000000E026E000E036E000E046E90EC06F043
:100EC00012000A6E818E0A50016E026A036A046A79
:100ED00090EC06F0819E0A50016E026A036A046A71
:100EE00090EC06F01200000E036E01D0032A0150B0
:100EF0000324026E02C0F6FF0800F5500009D8A4D2
:100F0000F5D703501200020E026E860E016E990E86
:100F1000E82EFED7012EFCD7022EFAD700F01200E1
:100F2000000E026E01500224D96EDA6A000EDF6EE6
:100F3000022A0A0E0264F6D71200313233343536F3
:100F4000000000003336393235383031343749EC5F
:100F500007F0470E046E750E056E95EC05F0120055
:100F6000821112142122244142448184300EE82E41
:040F7000FED7120096
:020000040030CA
:0E000000000C091EFF8180FF0FC00FE00F40B3
:00000001FF
